{
  "contractName": "index",
  "abi": [
    {
      "inputs": [],
      "stateMutability": "nonpayable",
      "type": "constructor"
    },
    {
      "stateMutability": "payable",
      "type": "fallback"
    },
    {
      "inputs": [],
      "name": "owner",
      "outputs": [
        {
          "internalType": "address",
          "name": "",
          "type": "address"
        }
      ],
      "stateMutability": "view",
      "type": "function"
    },
    {
      "inputs": [],
      "name": "password",
      "outputs": [
        {
          "internalType": "string",
          "name": "",
          "type": "string"
        }
      ],
      "stateMutability": "view",
      "type": "function"
    },
    {
      "inputs": [
        {
          "internalType": "string",
          "name": "",
          "type": "string"
        }
      ],
      "name": "patients",
      "outputs": [
        {
          "internalType": "string",
          "name": "id",
          "type": "string"
        },
        {
          "internalType": "string",
          "name": "name",
          "type": "string"
        },
        {
          "internalType": "string",
          "name": "description",
          "type": "string"
        },
        {
          "internalType": "address",
          "name": "createdby",
          "type": "address"
        },
        {
          "internalType": "bool",
          "name": "is_Used",
          "type": "bool"
        }
      ],
      "stateMutability": "view",
      "type": "function"
    },
    {
      "inputs": [],
      "name": "price",
      "outputs": [
        {
          "internalType": "uint256",
          "name": "",
          "type": "uint256"
        }
      ],
      "stateMutability": "view",
      "type": "function"
    },
    {
      "inputs": [],
      "name": "username",
      "outputs": [
        {
          "internalType": "string",
          "name": "",
          "type": "string"
        }
      ],
      "stateMutability": "view",
      "type": "function"
    },
    {
      "inputs": [
        {
          "internalType": "address",
          "name": "",
          "type": "address"
        }
      ],
      "name": "users",
      "outputs": [
        {
          "internalType": "string",
          "name": "username",
          "type": "string"
        },
        {
          "internalType": "string",
          "name": "password",
          "type": "string"
        },
        {
          "internalType": "bool",
          "name": "is_Register",
          "type": "bool"
        }
      ],
      "stateMutability": "view",
      "type": "function"
    },
    {
      "stateMutability": "payable",
      "type": "receive"
    },
    {
      "inputs": [
        {
          "internalType": "string",
          "name": "usr",
          "type": "string"
        },
        {
          "internalType": "string",
          "name": "pwd",
          "type": "string"
        }
      ],
      "name": "register",
      "outputs": [],
      "stateMutability": "nonpayable",
      "type": "function"
    },
    {
      "inputs": [
        {
          "internalType": "string",
          "name": "usr",
          "type": "string"
        },
        {
          "internalType": "string",
          "name": "pwd",
          "type": "string"
        }
      ],
      "name": "login",
      "outputs": [
        {
          "internalType": "bool",
          "name": "",
          "type": "bool"
        }
      ],
      "stateMutability": "payable",
      "type": "function"
    },
    {
      "inputs": [
        {
          "internalType": "string",
          "name": "input_id",
          "type": "string"
        },
        {
          "internalType": "string",
          "name": "ne",
          "type": "string"
        },
        {
          "internalType": "string",
          "name": "dp",
          "type": "string"
        }
      ],
      "name": "Addnewpatient",
      "outputs": [
        {
          "internalType": "bool",
          "name": "",
          "type": "bool"
        }
      ],
      "stateMutability": "payable",
      "type": "function"
    },
    {
      "inputs": [
        {
          "internalType": "string",
          "name": "input_id",
          "type": "string"
        }
      ],
      "name": "Deletepatient",
      "outputs": [
        {
          "internalType": "bool",
          "name": "",
          "type": "bool"
        }
      ],
      "stateMutability": "payable",
      "type": "function"
    },
    {
      "inputs": [
        {
          "internalType": "string",
          "name": "input_id",
          "type": "string"
        },
        {
          "internalType": "string",
          "name": "dp",
          "type": "string"
        },
        {
          "internalType": "address",
          "name": "newowner",
          "type": "address"
        }
      ],
      "name": "Updatepatient",
      "outputs": [
        {
          "internalType": "bool",
          "name": "",
          "type": "bool"
        }
      ],
      "stateMutability": "payable",
      "type": "function"
    },
    {
      "inputs": [
        {
          "internalType": "string",
          "name": "input_id",
          "type": "string"
        }
      ],
      "name": "Searchpatient",
      "outputs": [
        {
          "components": [
            {
              "internalType": "string",
              "name": "id",
              "type": "string"
            },
            {
              "internalType": "string",
              "name": "name",
              "type": "string"
            },
            {
              "internalType": "string",
              "name": "description",
              "type": "string"
            },
            {
              "internalType": "address",
              "name": "createdby",
              "type": "address"
            },
            {
              "internalType": "bool",
              "name": "is_Used",
              "type": "bool"
            }
          ],
          "internalType": "struct index.patient",
          "name": "",
          "type": "tuple"
        }
      ],
      "stateMutability": "payable",
      "type": "function"
    }
  ],
  "bytecode": "0x608060405234801561001057600080fd5b506000808190555033600160006101000a81548173ffffffffffffffffffffffffffffffffffffffff021916908373ffffffffffffffffffffffffffffffffffffffff16021790555061276d806100686000396000f3fe6080604052600436106100ab5760003560e01c80638ad484b6116100645780638ad484b6146101c35780638da5cb5b146101f3578063a035b1fe1461021e578063a87430ba14610249578063c4b6e32a14610288578063c6009d84146102b8576100b2565b8063224b610b146100b45780632a3b2272146100df5780633c9b1d4e1461010f5780633ffbd47f1461013f57806358467dbc1461016857806361fac54d14610198576100b2565b366100b257005b005b3480156100c057600080fd5b506100c96102f9565b6040516100d69190611aae565b60405180910390f35b6100f960048036038101906100f49190611c19565b610387565b6040516101069190611d8c565b60405180910390f35b61012960048036038101906101249190611dae565b6107fc565b6040516101369190611e64565b60405180910390f35b34801561014b57600080fd5b5061016660048036038101906101619190611e7f565b610abe565b005b610182600480360381019061017d9190611e7f565b610c53565b60405161018f9190611e64565b60405180910390f35b3480156101a457600080fd5b506101ad610fa8565b6040516101ba9190611aae565b60405180910390f35b6101dd60048036038101906101d89190611c19565b611036565b6040516101ea9190611e64565b60405180910390f35b3480156101ff57600080fd5b506102086112e3565b6040516102159190611f06565b60405180910390f35b34801561022a57600080fd5b50610233611309565b6040516102409190611f3a565b60405180910390f35b34801561025557600080fd5b50610270600480360381019061026b9190611f81565b61130f565b60405161027f93929190611fae565b60405180910390f35b6102a2600480360381019061029d9190611ff3565b611456565b6040516102af9190611e64565b60405180910390f35b3480156102c457600080fd5b506102df60048036038101906102da9190611c19565b611769565b6040516102f095949392919061207e565b60405180910390f35b6004805461030690612115565b80601f016020809104026020016040519081016040528092919081815260200182805461033290612115565b801561037f5780601f106103545761010080835404028352916020019161037f565b820191906000526020600020905b81548152906001019060200180831161036257829003601f168201915b505050505081565b61038f61197a565b60011515600260003373ffffffffffffffffffffffffffffffffffffffff1673ffffffffffffffffffffffffffffffffffffffff16815260200190815260200160002060020160009054906101000a900460ff16151514610425576040517f08c379a000000000000000000000000000000000000000000000000000000000815260040161041c906121b8565b60405180910390fd5b60011515600560009054906101000a900460ff1615151461047b576040517f08c379a000000000000000000000000000000000000000000000000000000000815260040161047290612224565b60405180910390fd5b6001151560068360405161048f9190612280565b908152602001604051809103902060030160149054906101000a900460ff161515146104f0576040517f08c379a00000000000000000000000000000000000000000000000000000000081526004016104e7906122e3565b60405180910390fd5b3373ffffffffffffffffffffffffffffffffffffffff166006836040516105179190612280565b908152602001604051809103902060030160009054906101000a900473ffffffffffffffffffffffffffffffffffffffff1673ffffffffffffffffffffffffffffffffffffffff161461059f576040517f08c379a00000000000000000000000000000000000000000000000000000000081526004016105969061239b565b60405180910390fd5b60006006836040516105b19190612280565b90815260200160405180910390206040518060a00160405290816000820180546105da90612115565b80601f016020809104026020016040519081016040528092919081815260200182805461060690612115565b80156106535780601f1061062857610100808354040283529160200191610653565b820191906000526020600020905b81548152906001019060200180831161063657829003601f168201915b5050505050815260200160018201805461066c90612115565b80601f016020809104026020016040519081016040528092919081815260200182805461069890612115565b80156106e55780601f106106ba576101008083540402835291602001916106e5565b820191906000526020600020905b8154815290600101906020018083116106c857829003601f168201915b505050505081526020016002820180546106fe90612115565b80601f016020809104026020016040519081016040528092919081815260200182805461072a90612115565b80156107775780601f1061074c57610100808354040283529160200191610777565b820191906000526020600020905b81548152906001019060200180831161075a57829003601f168201915b505050505081526020016003820160009054906101000a900473ffffffffffffffffffffffffffffffffffffffff1673ffffffffffffffffffffffffffffffffffffffff1673ffffffffffffffffffffffffffffffffffffffff1681526020016003820160149054906101000a900460ff161515151581525050905080915050919050565b600060011515600260003373ffffffffffffffffffffffffffffffffffffffff1673ffffffffffffffffffffffffffffffffffffffff16815260200190815260200160002060020160009054906101000a900460ff16151514610894576040517f08c379a000000000000000000000000000000000000000000000000000000000815260040161088b906121b8565b60405180910390fd5b60011515600560009054906101000a900460ff161515146108ea576040517f08c379a00000000000000000000000000000000000000000000000000000000081526004016108e190612224565b60405180910390fd5b600015156006856040516108fe9190612280565b908152602001604051809103902060030160149054906101000a900460ff1615151461095f576040517f08c379a000000000000000000000000000000000000000000000000000000000815260040161095690612407565b60405180910390fd5b836006856040516109709190612280565b9081526020016040518091039020600001908161098d91906125d3565b508260068560405161099f9190612280565b908152602001604051809103902060010190816109bc91906125d3565b50816006856040516109ce9190612280565b908152602001604051809103902060020190816109eb91906125d3565b50336006856040516109fd9190612280565b908152602001604051809103902060030160006101000a81548173ffffffffffffffffffffffffffffffffffffffff021916908373ffffffffffffffffffffffffffffffffffffffff1602179055506001600685604051610a5e9190612280565b908152602001604051809103902060030160146101000a81548160ff021916908315150217905550600684604051610a969190612280565b908152602001604051809103902060030160149054906101000a900460ff1690509392505050565b60001515600260003373ffffffffffffffffffffffffffffffffffffffff1673ffffffffffffffffffffffffffffffffffffffff16815260200190815260200160002060020160009054906101000a900460ff16151514610b54576040517f08c379a0000000000000000000000000000000000000000000000000000000008152600401610b4b90612717565b60405180910390fd5b81600260003373ffffffffffffffffffffffffffffffffffffffff1673ffffffffffffffffffffffffffffffffffffffff1681526020019081526020016000206000019081610ba391906125d3565b5080600260003373ffffffffffffffffffffffffffffffffffffffff1673ffffffffffffffffffffffffffffffffffffffff1681526020019081526020016000206001019081610bf391906125d3565b506001600260003373ffffffffffffffffffffffffffffffffffffffff1673ffffffffffffffffffffffffffffffffffffffff16815260200190815260200160002060020160006101000a81548160ff0219169083151502179055505050565b600060011515600260003373ffffffffffffffffffffffffffffffffffffffff1673ffffffffffffffffffffffffffffffffffffffff16815260200190815260200160002060020160009054906101000a900460ff16151514610ceb576040517f08c379a0000000000000000000000000000000000000000000000000000000008152600401610ce2906121b8565b60405180910390fd5b60003390506000600260008373ffffffffffffffffffffffffffffffffffffffff1673ffffffffffffffffffffffffffffffffffffffff1681526020019081526020016000206000018054610d3f90612115565b80601f0160208091040260200160405190810160405280929190818152602001828054610d6b90612115565b8015610db85780601f10610d8d57610100808354040283529160200191610db8565b820191906000526020600020905b815481529060010190602001808311610d9b57829003601f168201915b505050505090506000600260008473ffffffffffffffffffffffffffffffffffffffff1673ffffffffffffffffffffffffffffffffffffffff1681526020019081526020016000206001018054610e0e90612115565b80601f0160208091040260200160405190810160405280929190818152602001828054610e3a90612115565b8015610e875780601f10610e5c57610100808354040283529160200191610e87565b820191906000526020600020905b815481529060010190602001808311610e6a57829003601f168201915b50505050509050600082604051602001610ea19190611aae565b604051602081830303815290604052805190602001209050600087604051602001610ecc9190611aae565b604051602081830303815290604052805190602001209050600083604051602001610ef79190611aae565b604051602081830303815290604052805190602001209050600088604051602001610f229190611aae565b6040516020818303038152906040528051906020012090508284148015610f4857508082145b15610f6d576001600560006101000a81548160ff021916908315150217905550610f89565b6000600560006101000a81548160ff0219169083151502179055505b600560009054906101000a900460ff1697505050505050505092915050565b60038054610fb590612115565b80601f0160208091040260200160405190810160405280929190818152602001828054610fe190612115565b801561102e5780601f106110035761010080835404028352916020019161102e565b820191906000526020600020905b81548152906001019060200180831161101157829003601f168201915b505050505081565b600060011515600260003373ffffffffffffffffffffffffffffffffffffffff1673ffffffffffffffffffffffffffffffffffffffff16815260200190815260200160002060020160009054906101000a900460ff161515146110ce576040517f08c379a00000000000000000000000000000000000000000000000000000000081526004016110c5906121b8565b60405180910390fd5b60011515600560009054906101000a900460ff16151514611124576040517f08c379a000000000000000000000000000000000000000000000000000000000815260040161111b90612224565b60405180910390fd5b600115156006836040516111389190612280565b908152602001604051809103902060030160149054906101000a900460ff16151514611199576040517f08c379a0000000000000000000000000000000000000000000000000000000008152600401611190906122e3565b60405180910390fd5b3373ffffffffffffffffffffffffffffffffffffffff166006836040516111c09190612280565b908152602001604051809103902060030160009054906101000a900473ffffffffffffffffffffffffffffffffffffffff1673ffffffffffffffffffffffffffffffffffffffff1614611248576040517f08c379a000000000000000000000000000000000000000000000000000000000815260040161123f9061239b565b60405180910390fd5b6006826040516112589190612280565b90815260200160405180910390206000808201600061127791906119c1565b60018201600061128791906119c1565b60028201600061129791906119c1565b6003820160006101000a81549073ffffffffffffffffffffffffffffffffffffffff02191690556003820160146101000a81549060ff0219169055505060006001905080915050919050565b600160009054906101000a900473ffffffffffffffffffffffffffffffffffffffff1681565b60005481565b600260205280600052604060002060009150905080600001805461133290612115565b80601f016020809104026020016040519081016040528092919081815260200182805461135e90612115565b80156113ab5780601f10611380576101008083540402835291602001916113ab565b820191906000526020600020905b81548152906001019060200180831161138e57829003601f168201915b5050505050908060010180546113c090612115565b80601f01602080910402602001604051908101604052809291908181526020018280546113ec90612115565b80156114395780601f1061140e57610100808354040283529160200191611439565b820191906000526020600020905b81548152906001019060200180831161141c57829003601f168201915b5050505050908060020160009054906101000a900460ff16905083565b600060011515600260003373ffffffffffffffffffffffffffffffffffffffff1673ffffffffffffffffffffffffffffffffffffffff16815260200190815260200160002060020160009054906101000a900460ff161515146114ee576040517f08c379a00000000000000000000000000000000000000000000000000000000081526004016114e5906121b8565b60405180910390fd5b60011515600560009054906101000a900460ff16151514611544576040517f08c379a000000000000000000000000000000000000000000000000000000000815260040161153b90612224565b60405180910390fd5b600115156006856040516115589190612280565b908152602001604051809103902060030160149054906101000a900460ff161515146115b9576040517f08c379a00000000000000000000000000000000000000000000000000000000081526004016115b0906122e3565b60405180910390fd5b3373ffffffffffffffffffffffffffffffffffffffff166006856040516115e09190612280565b908152602001604051809103902060030160009054906101000a900473ffffffffffffffffffffffffffffffffffffffff1673ffffffffffffffffffffffffffffffffffffffff1614611668576040517f08c379a000000000000000000000000000000000000000000000000000000000815260040161165f9061239b565b60405180910390fd5b826006856040516116799190612280565b9081526020016040518091039020600201908161169691906125d3565b50816006856040516116a89190612280565b908152602001604051809103902060030160006101000a81548173ffffffffffffffffffffffffffffffffffffffff021916908373ffffffffffffffffffffffffffffffffffffffff16021790555060016006856040516117099190612280565b908152602001604051809103902060030160146101000a81548160ff0219169083151502179055506006846040516117419190612280565b908152602001604051809103902060030160149054906101000a900460ff1690509392505050565b6006818051602081018201805184825260208301602085012081835280955050505050506000915090508060000180546117a290612115565b80601f01602080910402602001604051908101604052809291908181526020018280546117ce90612115565b801561181b5780601f106117f05761010080835404028352916020019161181b565b820191906000526020600020905b8154815290600101906020018083116117fe57829003601f168201915b50505050509080600101805461183090612115565b80601f016020809104026020016040519081016040528092919081815260200182805461185c90612115565b80156118a95780601f1061187e576101008083540402835291602001916118a9565b820191906000526020600020905b81548152906001019060200180831161188c57829003601f168201915b5050505050908060020180546118be90612115565b80601f01602080910402602001604051908101604052809291908181526020018280546118ea90612115565b80156119375780601f1061190c57610100808354040283529160200191611937565b820191906000526020600020905b81548152906001019060200180831161191a57829003601f168201915b5050505050908060030160009054906101000a900473ffffffffffffffffffffffffffffffffffffffff16908060030160149054906101000a900460ff16905085565b6040518060a00160405280606081526020016060815260200160608152602001600073ffffffffffffffffffffffffffffffffffffffff1681526020016000151581525090565b5080546119cd90612115565b6000825580601f106119df57506119fe565b601f0160209004906000526020600020908101906119fd9190611a01565b5b50565b5b80821115611a1a576000816000905550600101611a02565b5090565b600081519050919050565b600082825260208201905092915050565b60005b83811015611a58578082015181840152602081019050611a3d565b60008484015250505050565b6000601f19601f8301169050919050565b6000611a8082611a1e565b611a8a8185611a29565b9350611a9a818560208601611a3a565b611aa381611a64565b840191505092915050565b60006020820190508181036000830152611ac88184611a75565b905092915050565b6000604051905090565b600080fd5b600080fd5b600080fd5b600080fd5b7f4e487b7100000000000000000000000000000000000000000000000000000000600052604160045260246000fd5b611b2682611a64565b810181811067ffffffffffffffff82111715611b4557611b44611aee565b5b80604052505050565b6000611b58611ad0565b9050611b648282611b1d565b919050565b600067ffffffffffffffff821115611b8457611b83611aee565b5b611b8d82611a64565b9050602081019050919050565b82818337600083830152505050565b6000611bbc611bb784611b69565b611b4e565b905082815260208101848484011115611bd857611bd7611ae9565b5b611be3848285611b9a565b509392505050565b600082601f830112611c0057611bff611ae4565b5b8135611c10848260208601611ba9565b91505092915050565b600060208284031215611c2f57611c2e611ada565b5b600082013567ffffffffffffffff811115611c4d57611c4c611adf565b5b611c5984828501611beb565b91505092915050565b600082825260208201905092915050565b6000611c7e82611a1e565b611c888185611c62565b9350611c98818560208601611a3a565b611ca181611a64565b840191505092915050565b600073ffffffffffffffffffffffffffffffffffffffff82169050919050565b6000611cd782611cac565b9050919050565b611ce781611ccc565b82525050565b60008115159050919050565b611d0281611ced565b82525050565b600060a0830160008301518482036000860152611d258282611c73565b91505060208301518482036020860152611d3f8282611c73565b91505060408301518482036040860152611d598282611c73565b9150506060830151611d6e6060860182611cde565b506080830151611d816080860182611cf9565b508091505092915050565b60006020820190508181036000830152611da68184611d08565b905092915050565b600080600060608486031215611dc757611dc6611ada565b5b600084013567ffffffffffffffff811115611de557611de4611adf565b5b611df186828701611beb565b935050602084013567ffffffffffffffff811115611e1257611e11611adf565b5b611e1e86828701611beb565b925050604084013567ffffffffffffffff811115611e3f57611e3e611adf565b5b611e4b86828701611beb565b9150509250925092565b611e5e81611ced565b82525050565b6000602082019050611e796000830184611e55565b92915050565b60008060408385031215611e9657611e95611ada565b5b600083013567ffffffffffffffff811115611eb457611eb3611adf565b5b611ec085828601611beb565b925050602083013567ffffffffffffffff811115611ee157611ee0611adf565b5b611eed85828601611beb565b9150509250929050565b611f0081611ccc565b82525050565b6000602082019050611f1b6000830184611ef7565b92915050565b6000819050919050565b611f3481611f21565b82525050565b6000602082019050611f4f6000830184611f2b565b92915050565b611f5e81611ccc565b8114611f6957600080fd5b50565b600081359050611f7b81611f55565b92915050565b600060208284031215611f9757611f96611ada565b5b6000611fa584828501611f6c565b91505092915050565b60006060820190508181036000830152611fc88186611a75565b90508181036020830152611fdc8185611a75565b9050611feb6040830184611e55565b949350505050565b60008060006060848603121561200c5761200b611ada565b5b600084013567ffffffffffffffff81111561202a57612029611adf565b5b61203686828701611beb565b935050602084013567ffffffffffffffff81111561205757612056611adf565b5b61206386828701611beb565b925050604061207486828701611f6c565b9150509250925092565b600060a08201905081810360008301526120988188611a75565b905081810360208301526120ac8187611a75565b905081810360408301526120c08186611a75565b90506120cf6060830185611ef7565b6120dc6080830184611e55565b9695505050505050565b7f4e487b7100000000000000000000000000000000000000000000000000000000600052602260045260246000fd5b6000600282049050600182168061212d57607f821691505b6020821081036121405761213f6120e6565b5b50919050565b7f4e6f2073756368206163636f756e742c20706c6561736520726567697374657260008201527f2066697273742100000000000000000000000000000000000000000000000000602082015250565b60006121a2602783611a29565b91506121ad82612146565b604082019050919050565b600060208201905081810360008301526121d181612195565b9050919050565b7f506c65617365206c6f67696e2100000000000000000000000000000000000000600082015250565b600061220e600d83611a29565b9150612219826121d8565b602082019050919050565b6000602082019050818103600083015261223d81612201565b9050919050565b600081905092915050565b600061225a82611a1e565b6122648185612244565b9350612274818560208601611a3a565b80840191505092915050565b600061228c828461224f565b915081905092915050565b7f50617469656e7420646f65736e27742065786973742100000000000000000000600082015250565b60006122cd601683611a29565b91506122d882612297565b602082019050919050565b600060208201905081810360008301526122fc816122c0565b9050919050565b7f5468652070617469656e74206973206e6f7420756e64657220796f7572206d6160008201527f6e6167656d656e742c20736f2074686520696e666f726d6174696f6e2063616e60208201527f6e6f74206265206d6f6469666965642100000000000000000000000000000000604082015250565b6000612385605083611a29565b915061239082612303565b606082019050919050565b600060208201905081810360008301526123b481612378565b9050919050565b7f50617469656e7420616c72656164792065786973747321000000000000000000600082015250565b60006123f1601783611a29565b91506123fc826123bb565b602082019050919050565b60006020820190508181036000830152612420816123e4565b9050919050565b60008190508160005260206000209050919050565b60006020601f8301049050919050565b600082821b905092915050565b6000600883026124897fffffffffffffffffffffffffffffffffffffffffffffffffffffffffffffffff8261244c565b612493868361244c565b95508019841693508086168417925050509392505050565b6000819050919050565b60006124d06124cb6124c684611f21565b6124ab565b611f21565b9050919050565b6000819050919050565b6124ea836124b5565b6124fe6124f6826124d7565b848454612459565b825550505050565b600090565b612513612506565b61251e8184846124e1565b505050565b5b818110156125425761253760008261250b565b600181019050612524565b5050565b601f8211156125875761255881612427565b6125618461243c565b81016020851015612570578190505b61258461257c8561243c565b830182612523565b50505b505050565b600082821c905092915050565b60006125aa6000198460080261258c565b1980831691505092915050565b60006125c38383612599565b9150826002028217905092915050565b6125dc82611a1e565b67ffffffffffffffff8111156125f5576125f4611aee565b5b6125ff8254612115565b61260a828285612546565b600060209050601f83116001811461263d576000841561262b578287015190505b61263585826125b7565b86555061269d565b601f19841661264b86612427565b60005b828110156126735784890151825560018201915060208501945060208101905061264e565b86831015612690578489015161268c601f891682612599565b8355505b6001600288020188555050505b505050505050565b7f54686520757365726e616d652068617320616c7265616479206578697374656460008201527f2100000000000000000000000000000000000000000000000000000000000000602082015250565b6000612701602183611a29565b915061270c826126a5565b604082019050919050565b60006020820190508181036000830152612730816126f4565b905091905056fea2646970667358221220aab7c37c596ed283c071fe4ec126fc342aa731958a4dd522118a38aecea791cf64736f6c63430008110033",
  "immutableReferences": {},
  "source": "// SPDX-License-Identifier: MIT\r\n\r\npragma solidity >=0.5.0 <=0.8.17;\r\n\r\ncontract index{\r\n    receive() external payable {}\r\n    fallback() external payable {}\r\n    uint public price;\r\n    address public owner;\r\n    constructor(){\r\n        price = 0;\r\n        owner = msg.sender;\r\n    }\r\n    //Function Modifier\r\n    modifier onlyowner(){\r\n        require(msg.sender == owner);\r\n        _;\r\n    }\r\n\r\n    //The doctor and other kinds of managers of the system\r\n    struct user{\r\n        string username;\r\n        string password;\r\n        bool is_Register;\r\n    }\r\n    mapping(address => user) public users;\r\n    string public username;\r\n    string public password;\r\n    bool is_valid; //To verify the users\r\n\r\n    //Deploy the users/doctors/managers\r\n    function register(string memory usr, string memory pwd) external{\r\n        require(users[msg.sender].is_Register == false, \"The username has already existed!\");\r\n        users[msg.sender].username = usr;\r\n        users[msg.sender].password = pwd;\r\n        users[msg.sender].is_Register = true;\r\n    }\r\n\r\n    function login(string memory usr, string memory pwd) public payable returns(bool){\r\n        require(users[msg.sender].is_Register == true, \"No such account, please register first!\");\r\n\r\n        //Get the real user info\r\n        address addr = msg.sender;\r\n        string memory cur_username = users[addr].username;\r\n        string memory cur_password = users[addr].password;\r\n        //Hash the usr,pwd and user info\r\n        bytes32 usr1Hash = keccak256(abi.encode(cur_username));\r\n        bytes32 usr2Hash = keccak256(abi.encode(usr));\r\n        bytes32 pwd1Hash = keccak256(abi.encode(cur_password));\r\n        bytes32 pwd2Hash = keccak256(abi.encode(pwd));      \r\n        //Verify whether the inputs and userinfo is right.\r\n        if (usr1Hash == usr2Hash && pwd1Hash == pwd2Hash)\r\n        {\r\n            is_valid = true;\r\n        }\r\n        else \r\n        {\r\n            is_valid = false;\r\n        }\r\n\r\n        return is_valid;\r\n    } \r\n\r\n////////////////////////////////////////////////////////////////////\r\n\r\n    struct patient{\r\n        string id;//Patient's ID\r\n        string name;//Patient's name\r\n        string description;//The health info\r\n        address createdby;//The doctor responsible for the patient\r\n        bool is_Used;//Whether the patient has been uploaded.\r\n    }\r\n    mapping(string => patient) public patients;\r\n    //Add a new patient, must upload the patient's info, the patient is created by the msg.sender.\r\n    function Addnewpatient(string memory input_id, string memory ne, string memory dp) public payable returns(bool){\r\n        require(users[msg.sender].is_Register == true, \"No such account, please register first!\");\r\n        require(is_valid == true, \"Please login!\");\r\n        require(patients[input_id].is_Used == false, \"Patient already exists!\");\r\n\r\n        patients[input_id].id = input_id;\r\n        patients[input_id].name = ne;\r\n        patients[input_id].description = dp;\r\n        patients[input_id].createdby = msg.sender;\r\n        patients[input_id].is_Used = true;\r\n\r\n        return patients[input_id].is_Used;\r\n    }\r\n    //Input the ID to delete the patient.\r\n    function Deletepatient(string memory input_id) public payable returns(bool){\r\n        require(users[msg.sender].is_Register == true, \"No such account, please register first!\");\r\n        require(is_valid == true, \"Please login!\");\r\n        require(patients[input_id].is_Used == true, \"Patient doesn't exist!\");\r\n        require(patients[input_id].createdby == msg.sender, \"The patient is not under your management, so the information cannot be modified!\");\r\n\r\n        delete patients[input_id]; \r\n        bool is_finished = true;\r\n\r\n        return is_finished;\r\n    }\r\n    //Input the id to select the patient info you want to update, just can update the description and createdby.\r\n    function Updatepatient(string memory input_id, string memory dp, address newowner) public payable returns(bool){\r\n        require(users[msg.sender].is_Register == true, \"No such account, please register first!\");\r\n        require(is_valid == true, \"Please login!\");\r\n        require(patients[input_id].is_Used == true, \"Patient doesn't exist!\");\r\n        require(patients[input_id].createdby == msg.sender, \"The patient is not under your management, so the information cannot be modified!\");\r\n\r\n        patients[input_id].description = dp;\r\n        patients[input_id].createdby = newowner;\r\n        patients[input_id].is_Used = true;\r\n\r\n        return patients[input_id].is_Used;\r\n    }\r\n    //Input the id to search the info of this patient.\r\n    function Searchpatient(string memory input_id) public payable returns(patient memory){\r\n        require(users[msg.sender].is_Register == true, \"No such account, please register first!\");\r\n        require(is_valid == true, \"Please login!\");\r\n        require(patients[input_id].is_Used == true, \"Patient doesn't exist!\");\r\n        require(patients[input_id].createdby == msg.sender, \"The patient is not under your management, so the information cannot be modified!\");\r\n\r\n        patient memory cur_patient = patients[input_id];\r\n        return cur_patient;\r\n    }\r\n}",
  "sourcePath": "D:\\epay_project\\demo1\\contracts\\MyContract.sol",
  "compiler": {
    "name": "solc",
    "version": "0.8.17+commit.8df45f5f.Emscripten.clang"
  },
  "schemaVersion": "3.4.10",
  "updatedAt": "2022-12-05T08:54:31.167Z",
  "devdoc": {
    "kind": "dev",
    "methods": {},
    "version": 1
  },
  "userdoc": {
    "kind": "user",
    "methods": {},
    "version": 1
  }
}